:0200000490006A
:10000000000008243512009045110090471100901F
:10001000491100904B1100904D110090000000001C
:100020000000000000000000000000004F110090E0
:1000300051110090000000005311009055110090E4
:100040008512009085120090851200908512009014
:100050008512009085120090851200908512009004
:1000600085120090851200908512009085120090F4
:1000700085120090851200908512009085120090E4
:1000800085120090851200908512009085120090D4
:1000900085120090851200908512009085120090C4
:1000A00085120090851200908512009085120090B4
:1000B00085120090851200908512009085120090A4
:1000C0008512009085120090851200905D110090BD
:1000D0008512009085120090851200908512009084
:1000E000851200908512009000000000851200909B
:1000F0008512009085120090851200908512009064
:100100008512009085120090851200908512009053
:100110008512009085120090851200908512009043
:100120008512009085120090851200908512009033
:100130008512009085120090851200908512009023
:1001400000000000000000000000000000000000AF
:100150008512009085120090851200908512009003
:1001600085120090851200908512009085120090F3
:1001700085120090851200908512009085120090E3
:1001800085120090851200908512009085120090D3
:1001900085120090851200908512009085120090C3
:1001A00085120090851200908512009085120090B3
:1001B00085120090851200908512009085120090A3
:1001C0008512009085120090851200908512009093
:1001D0008512009085120090851200908512009083
:1001E0008512009085120090851200908512009073
:1001F0008512009085120090851200908512009063
:100200008512009085120090851200908512009052
:100210008512009085120090851200908512009042
:100220008512009085120090851200900000000059
:100230008512009085120090000000008512009049
:100240008512009085120090851200908512009012
:100250008512009085120090851200908512009002
:1002600085120090851200908512009085120090F2
:100270008512009085120090851200900000000009
:1002800085120090851200908512009000000000F9
:0802900000000000851200903F
:1002980010B5054C237833B9044B13B10448AFF3B8
:1002A80000800123237010BD3C04002400000000DE
:1002B8006448009008B5034B1BB103490348AFF3EA
:1002C800008008BD0000000040040024644800903D
:1002D80080F0004002E000BF81F0004142001FBFF3
:1002E8005FEA410392EA030F7FEA226C7FEA236CFC
:1002F8006AD04FEA1262D2EB1363C1BFD2184140F1
:1003080048404140B8BF5B42192B88BF704710F086
:10031800004F40F4000020F07F4018BF404211F029
:10032800004F41F4000121F07F4118BF494292EA91
:10033800030F3FD0A2F1010241FA03FC10EB0C00BD
:10034800C3F1200301FA03F100F0004302D549424A
:1003580060EB4000B0F5000F13D3B0F1807F06D3F7
:1003680040084FEA310102F10102FE2A51D2B1F1EF
:10037800004F40EBC25008BF20F0010040EA0300E4
:100388007047490040EB0000013A28BFB0F5000F64
:10039800EDD2B0FA80FCACF1080CB2EB0C0200FA1A
:1003A8000CF0AABF00EBC25052421843BCBFD04069
:1003B8001843704792F0000F81F4000106BF80F4E3
:1003C80000000132013BB5E74FEA41037FEA226CA6
:1003D80018BF7FEA236C21D092EA030F04D092F071
:1003E800000F08BF0846704790EA010F1CBF0020A5
:1003F800704712F07F4F04D1400028BF40F0004002
:10040800704712F100723CBF00F50000704700F021
:10041800004343F0FE4040F4000070477FEA226248
:1004280016BF08467FEA23630146420206BF5FEA19
:10043800412390EA010F40F4800070474FF0000319
:1004480004E000BF10F0004348BF40425FEA000CE0
:1004580008BF704743F0964301464FF000001CE088
:1004680050EA010208BF70474FF000030AE000BFDE
:1004780050EA010208BF704711F0004302D540421C
:1004880061EB41015FEA010C02BF8446014600208E
:1004980043F0B64308BFA3F18053A3F50003BCFAA9
:1004A8008CF2083AA3EBC25310DB01FA02FC634456
:1004B80000FA02FCC2F12002BCF1004F20FA02F25D
:1004C80043EB020008BF20F00100704702F1200250
:1004D80001FA02FCC2F1200250EA4C0021FA02F2B1
:1004E80043EB020008BF20EADC7070474FF0FF0CB6
:1004F8001CEAD0521EBF1CEAD15392EA0C0F93EAB1
:100508000C0F6FD01A4480EA010C400218BF5FEA52
:1005180041211ED04FF0006343EA501043EA5111C5
:10052800A0FB01310CF00040B1F5000F3EBF4900BF
:1005380041EAD3715B0040EA010062F17F02FD2AC3
:100548001DD8B3F1004F40EBC25008BF20F00100A6
:10055800704790F0000F0CF0004C08BF49024CEABD
:10056800502040EA51207F3AC2BFD2F1FF0340EA4F
:10057800C250704740F400004FF00003013A5DDCC0
:1005880012F1190FDCBF00F000407047C2F1000201
:10059800410021FA02F1C2F1200200FA02FC5FEAEE
:1005A800310040F1000053EA4C0308BF20EADC7038
:1005B800704792F0000F00F0004C02BF400010F4AA
:1005C800000F013AF9D040EA0C0093F0000F01F057
:1005D800004C02BF490011F4000F013BF9D041EA79
:1005E8000C018FE70CEAD15392EA0C0F18BF93EA7B
:1005F8000C0F0AD030F0004C18BF31F0004CD8D1A5
:1006080080EA010000F00040704790F0000F17BF2B
:1006180090F0004F084691F0000F91F0004F14D071
:1006280092EA0C0F01D142020FD193EA0C0F03D1C9
:100638004B0218BF084608D180EA010000F00040CC
:1006480040F0FE4040F40000704740F0FE4040F4A7
:10065800400070474FF0FF0C1CEAD0521EBF1CEA46
:10066800D15392EA0C0F93EA0C0F69D0A2EB030264
:1006780080EA010C49024FEA402037D04FF08053FE
:1006880043EA111143EA10130CF000408B4238BFC3
:100698005B0042F17D024FF4000C8B4224BF5B1AD1
:1006A80040EA0C00B3EB510F24BFA3EB510340EA1F
:1006B8005C00B3EB910F24BFA3EB910340EA9C00CD
:1006C800B3EBD10F24BFA3EBD10340EADC001B013D
:1006D80018BF5FEA1C1CE0D1FD2A3FF650AF8B42E1
:1006E80040EBC25008BF20F0010070470CF0004CEE
:1006F8004CEA50207F32C2BFD2F1FF0340EAC25019
:10070800704740F400004FF00003013A37E792F0D9
:10071800000F00F0004C02BF400010F4000F013A37
:10072800F9D040EA0C0093F0000F01F0004C02BF32
:10073800490011F4000F013BF9D041EA0C0195E79B
:100748000CEAD15392EA0C0F08D142027FF47DAF34
:1007580093EA0C0F7FF470AF084676E793EA0C0F24
:1007680004D14B023FF44CAF08466EE730F0004C22
:1007780018BF31F0004CCAD130F000427FF45CAFB2
:1007880031F000437FF43CAF5FE700BF42000ED278
:10079800B2F1FE4F0BD34FF09E03B3EB126209D4B4
:1007A8004FEA002343F0004323FA02F070474FF06A
:1007B8000000704712F1610F01D1420202D14FF0DF
:1007C800FF3070474FF00000704700BF08B50E4873
:1007D8000E4B0360002343608360C36043648364FB
:1007E800C364036543658365C36500F06DFF28B97D
:1007F8000121054800F0AAFF18B908BD00F036FB32
:10080800F6E700F033FBF8E7580400240010005224
:1008180002680A4B9A4200D0704782B0084BD3F85E
:10082800D42042F01002C3F8D420D3F8D43003F017
:1008380010030193019B02B0704700BF00100052E3
:1008480000440258F0B5B9B000233393349335937C
:1008580036933793354B1B680BB139B0F0BD334B2A
:1008680001221A60C022002102A803F035FF4FF0D0
:1008780080720023CDE9022302A802F07DF9002846
:1008880050D12B4BD3F8D42042F48052C3F8D42053
:10089800D3F8D43003F480530193019B4FF683734C
:1008A80033930227349700263596032536950C2472
:1008B800379433A91F4800F0CBFF48F2371333931E
:1008C800349735963695379433A91B4800F0C0FF06
:1008D8004CF203733393349735963695379433A98E
:1008E800164800F0B5FF4FF63F033393349735961B
:1008F8003695379433A9124800F0AAFF01233393A1
:10090800349735963695379433A90E4800F0A0FFF2
:100918003394349735963695379433A90A4800F0BE
:1009280097FF9AE700F0A2FAABE700BFC0040024E3
:10093800004402580010025800180258000C0258CF
:100948000014025800080258001C02582DE9F04112
:1009580082B005460C464FF00008CDF80480012609
:100968000E6010274F608E60C1F80C804FF48052E3
:1009780002F070FE304600F0EBFC02232360676053
:10098800A660C4F80C804FF480522146284602F035
:1009980061FE0323236067600823A360C4F80C800A
:1009A8004FF480522146284602F054FE40F231238B
:1009B8000193042323606760A660019BE3604FF402
:1009C80080522146284602F045FE40F296312846DC
:1009D80002F061FE02B0BDE8F081000000B589B008
:1009E80000230193029303930493059306930793BB
:1009F8001848194A02604360012282600822C260D6
:100A080010220261402242614FF4C0728261C361C8
:100A18004FF4006303624FF4805343624FF4005372
:100A28008362022301930722029204210391049214
:100A38000322059206930793694402F0E3FD30B957
:100A480006490448FFF782FF09B05DF804FB00F08F
:100A58000DFAF5E7D404002440410052C4040024F0
:100A680008B5FFF7EFFE08BD2DE9F04391B000246B
:100A78000B940C940D940E940F94614BD3F8E020D2
:100A880042F48072C3F8E020D3F8E02002F48072C8
:100A98000192019AD3F8E02042F00202C3F8E02064
:100AA800D3F8E02002F002020292029AD3F8E02082
:100AB80042F48062C3F8E020D3F8E02002F48062B8
:100AC8000392039AD3F8E02042F04002C3F8E020F2
:100AD800D3F8E02002F040020492049AD3F8E02010
:100AE80042F00802C3F8E020D3F8E02002F0080240
:100AF8000592059AD3F8E02042F01002C3F8E020EE
:100B0800D3F8E02002F010020692069AD3F8E0200B
:100B180042F40072C3F8E020D3F8E02002F4007237
:100B28000792079AD3F8E02042F08002C3F8E02049
:100B3800D3F8E02002F080020892089AD3F8E02067
:100B480042F00402C3F8E020D3F8E02002F00402E7
:100B58000992099AD3F8E02042F02002C3F8E02075
:100B6800D3F8E03003F020030A930A9BDFF894805F
:100B780001221021404600F07FFFDFF88C9001220F
:100B8800A021484600F078FF204F01224FF404517D
:100B9800384600F071FF1E4E22464FF40051304691
:100BA80000F06AFF10230B9301250C950D940E9409
:100BB8000BA9404600F04CFEA0230B930C950D9515
:100BC8004FF00308CDF838800BA9484600F040FEE6
:100BD8004FF404530B930C950D95CDF838800BA961
:100BE800384600F035FE4FF400530B930C950D95E5
:100BF8000E940BA9304600F02BFE11B0BDE8F0832F
:100C08000044025800200258000C0258001C0258E8
:100C18000008025800B58FB03422002101A803F063
:100C28005BFD2848284B0360002343608360C36052
:100C380003610122426182610D22C261026240F2B7
:100C4800ED12426240F28D22826240F2F512C262D7
:100C580040F29522026380F8343080F835306423FE
:100C680080F8363000F0F4FF28BB002201924FF4E0
:100C7800F071029103924FF42073049302200590BF
:100C8800FF20069007924FF4806008900520099095
:100C98004FF040400A900B910C938DF834208DF85A
:100CA80035208DF8362001A9064801F04DF828B9FD
:100CB8000FB05DF804FB00F0D9F8D6E700F0D6F8DD
:100CC800F6E700BF08050024001000502DE9F043A6
:100CD800BDB0044600213791389139913A913B9142
:100CE800C02206A803F0F8FC2268594B9A4202D0A9
:100CF8003DB0BDE8F0834FF000520023CDE9062354
:100D0800192310934FF4A57311930223129313938D
:100D18000F23149306A801F02FFF002840F09480B9
:100D28004C4BD3F8E42042F00802C3F8E420D3F88F
:100D3800E42002F008020092009AD3F8E02042F47E
:100D48008062C3F8E020D3F8E02002F480620192C8
:100D5800019AD3F8E02042F04002C3F8E020D3F82B
:100D6800E02002F040020292029AD3F8E02042F416
:100D78000072C3F8E020D3F8E02002F40072039276
:100D8800039AD3F8E02042F08002C3F8E020D3F8B9
:100D9800E02002F080020492049AD3F8E02042F4A2
:100DA8008072C3F8E020D3F8E03003F48073059331
:100DB800059BFE2337930226389600253995032490
:100DC8003A940E273B9737A9234800F041FD4FF48A
:100DD80080633793389639953A944FF00909CDF8DE
:100DE800EC9037A91D4800F033FD48F27C23379377
:100DF800389639953A943B9737A9194800F028FD59
:100E08004FF400433793389639953A943B97DFF877
:100E1800548037A9404600F01BFD4FF4E043379358
:100E2800389639953A943B9737A90F4800F010FD4A
:100E380010233793389639953A94CDF8EC9037A922
:100E4800404600F005FD53E700F010F868E700BFE2
:100E58000010005000440258002802580018025898
:100E680000240258001C02580020025872B6FEE7FF
:100E780000B59FB04C2200210BA803F02DFC2022C6
:100E8800002103A803F028FC022000F08FFF0023B4
:100E98000093394BDA6A22F00102DA62DB6A03F066
:100EA80001030093354B9A6942F440429A619B6969
:100EB80003F440430093009B304B9B6913F4005F9D
:100EC800FAD02F4BD3F8F42042F00202C3F8F420F2
:100ED800D3F8F43003F002030193019B002302933B
:100EE800264B9A6942F440429A619B6903F4404355
:100EF8000293214BDA6A42F00102DA62DB6A03F0FC
:100F080001030293029B1D4B9B6913F4005FFAD007
:100F180001230B934FF480330C93022314931593FE
:100F280005221692C02217921893042219921A9336
:100F380008231B9300231C931D930BA800F060FF4C
:100F4800B0B93F2303930323049300230593082395
:100F580006934023079308934FF4806209920A93FB
:100F6800042103A801F0B2FB20B91FB05DF804FB0F
:100F7800FFF77CFFFFF77AFF00040058004802588B
:100F88000044025808B500F0A3F9FFF771FFFFF716
:100F98006BFD00F017F803F083F8FFF71FFDFFF76C
:100FA80039FEFFF713FC022000F0D2F94FF400518C
:100FB800034800F067FDC82000F0CAF9F6E700BF53
:100FC8000008025808B51548154B03604FF4800314
:100FD80043604FF4003383600823C3600023036138
:100FE80043614FF0806282614FF04052C2610362F8
:100FF80043628362C3624FF0804242638363C36388
:10100800036443648364C36403654365836502F0D2
:10101800EDFB00B908BDFFF729FFFBE7B005002489
:1010280000300140F0B5BBB004460021359136913F
:10103800379138913991C02204A803F04DFB2268FA
:10104800314B9A4201D03BB0F0BD4FF4805200239F
:10105800CDE9042319230693F02307930223089369
:1010680009930A934FF480531C9304A801F084FD5C
:10107800002846D1254BD3F8F02042F48052C3F81B
:10108800F020D3F8F02002F480520192019AD3F8AC
:10109800E02042F00202C3F8E020D3F8E02002F09A
:1010A80002020292029AD3F8E02042F04002C3F80A
:1010B800E020D3F8E03003F040030393039B2023A0
:1010C800359302273697002437940326389605254A
:1010D800399535A90E4800F0BBFB4FF400633593F2
:1010E800369737943896399535A90A4800F0B0FBF9
:1010F80022462146232000F057F9232000F08AF9E0
:10110800A1E7FFF7B3FEB5E70030014000440258FD
:10111800000402580018025882B0074BD3F8F42094
:1011280042F00202C3F8F420D3F8F43003F00203CB
:101138000193019B02B0704700440258FEE7FEE7A6
:10114800FEE7FEE7FEE770477047704708B500F016
:10115800EDF808BD08B5024802F08CFD08BD00BFD7
:10116800B0050024264B1B6803F00F03062B06D896
:10117800234A136823F00F0343F007031360214B3E
:101188001A6842F001021A6000221A6119681E4AA0
:101198000A401A601A4B1B6813F0080F06D0184A49
:1011A800136823F00F0343F007031360154B002265
:1011B8009A61DA611A62154999621549D962154925
:1011C80019635A639963DA6319645A64196821F4D4
:1011D800802119601A66104B1A68104B1340B3F13E
:1011E800005F03D20E4B0122C3F808210D4B43F2D6
:1011F800D2021A600C4B4FF010429A60704700BF41
:1012080000200052004402587FEDF6EA0002020274
:101218000000FF01800201010010005C0000FFFFD8
:10122800008000510040005200ED00E0DFF834D0AB
:10123800FFF798FF0C480D490D4A002302E0D458E7
:10124800C4500433C4188C42F9D30A4A0A4C002308
:1012580001E013600432A242FBD303F019FAFFF74E
:1012680091FE704700000824000000243C0400247C
:101278009C4800903C04002440060024FEE700003F
:10128800104B1B780BB90120704710B504464FF47A
:101298007A70B0FBF3F30C4A1068B0FBF3F000F07F
:1012A800C7F868B90F2C01D901200AE000222146AD
:1012B8004FF0FF3000F078F8044B1C60002000E08D
:1012C800012010BD08000024000000240C000024A8
:1012D80010B5032000F056F801F0ECF80F498B69BF
:1012E800C3F303230E4AD35C03F01F03D8408B6972
:1012F80003F00F03D35C03F01F0320FA03F3094A3A
:101308001360094B18600020FFF7BAFF10B10124E1
:10131800204610BD0446FFF7FFFEF9E700440258D7
:101328007C4800900400002400000024034B1B7834
:10133800034A11680B441360704700BF080000247B
:1013480038060024014B1868704700BF380600248F
:1013580038B50446FFF7F6FF0546B4F1FF3F02D063
:10136800044B1B781C44FFF7EDFF401BA042FAD347
:1013780038BD00BF08000024014B1868000C7047F6
:101388000010005C0649CB6823F4E0631B041B0CC7
:10139800000200F4E0600343024A1A43CA6070473F
:1013A80000ED00E00000FA0500B5174BDB68C3F359
:1013B8000223C3F1070CBCF1040F28BF4FF0040C43
:1013C80003F1040EBEF1060F14D9033B4FF0FF3EA4
:1013D8000EFA0CFC21EA0C0199400EFA03F322EAFA
:1013E80003031943002807DB0901C9B2074B195445
:1013F8005DF804FB0023E9E700F00F000901C9B21A
:10140800034B1954F4E700BF00ED00E000E400E0EE
:1014180014ED00E0002807DB00F01F02400901235B
:101428009340024A42F82030704700BF00E100E0D4
:101438000138B0F1807F0BD24FF0E0235861054AA4
:10144800F02182F823100020986107221A61704762
:101458000120704700ED00E0002800F0298108B560
:10146800024690F83530DBB2022B03D08023436567
:10147800012008BD0368904890498B4218BF8342F9
:101488000CBF0121002166D03030834263D0183070
:10149800834260D0183083425DD0183083425AD0DE
:1014A8001830834257D01830834254D000F5567014
:1014B800834250D0183083424DD0183083424AD0EE
:1014C8001830834247D01830834244D018308342C2
:1014D80041D0183083423ED0183083423BD019683F
:1014E80021F00E0119601368A0F5956073498B42CD
:1014F80018BF83426AD072498B4267D018318B4239
:1015080064D018318B4261D018318B425ED01831CB
:101518008B425BD018318B4258D001F556718B4203
:1015280054D018318B4251D018318B424ED01831DB
:101538008B424BD018318B4248D018318B4245D062
:1015480018318B4242D018318B423FD0196821F0B4
:10155800010119603EE0042082F8350081BB584A39
:1015680093422DD0183293422AD01832934227D072
:101578001832934224D01832934221D01832934221
:101588001ED002F5567293421AD01832934217D0E1
:101598001832934214D01832934211D01832934221
:1015A8000ED0183293420BD01832934208D018321A
:1015B800934205D01A6822F001021A60002058E709
:1015C8001A6822F001021A60002052E7196821F017
:1015D800010119601368384838498B4218BF8342A3
:1015E80042D018318B423FD018318B423CD0183151
:1015F8008B4239D018318B4236D018318B4233D0D8
:1016080018318B4230D001F556718B422CD01831ED
:101618008B4229D018318B4226D018318B4223D0E7
:1016280018318B4220D018318B421DD018318B4293
:101638001AD018318B4217D022498B4214D014315A
:101648008B4211D014318B420ED014318B420BD007
:1016580014318B4208D014318B4205D014318B429F
:1016680002D014318B4217D1116E0B6823F48073AA
:101678000B60906DD36D03F01F0101238B40436015
:10168800536E916E5960D36E33B1196821F480712D
:101698001960136F516F5960012382F835300023A8
:1016A80082F83430136D2BB1104698470020E0E6DD
:1016B800012070470020DCE61000024028000240AC
:1016C8004000024008540258002837D010B504469C
:1016D80090F86130002B2CD0022384F86130216807
:1016E8000A68174B13406268E069024313430B60B2
:1016F80021684A6B134B1340A268A0690243134345
:101708004B632268116C104B0B40E1680B43136468
:1017180021684B6B23F4401320696269520542EA41
:10172800005213434B6300206066012384F8613044
:1017380010BD80F86030FFF76BF8CDE701207047E7
:10174800BFFFF8FFF8FEFFFF0000FFFF90F86030D2
:10175800012B74D030B4012380F86030022380F864
:101768006130C1EBC10200EB8202D46A136B44EA18
:101778000343956B43EA0553D26B43EA4253A4F102
:101788000902012A21D9C1EBC10200EB8202526B86
:1017980043EA026361BB0468656A2A4A2A40134324
:1017A80063620268C1EBC10300EB83039C6A946126
:1017B800DB6A093B012B11D9012380F86130002332
:1017C80080F86030184630BC7047C1EBC10200EBAE
:1017D8008202526B02F07F421343DBE7C1EBC10187
:1017E80000EB81014B6B026823F07F439362E3E7D0
:1017F8000B2C1BD0144D0468E26922EA050213433E
:10180800E3610268C1EBC10300EB83039C6A1461C6
:10181800DB6A093B012BCFD8C1EBC10100EB810189
:101828004B6B026823F07F431362C5E7C1EBC1022B
:1018380000EB8202126C43EA8243044DDBE702208C
:10184800704700BFF0FFCC000F0033FF0F003FFFD1
:1018580070B582B000236EE085685E000324B44052
:1018680025EA0405CC68B4402C438460446824EA23
:101878000C0C4C68C4F300149C4044EA0C0444600B
:101888006CE0DD08083550F8256003F007044FEADE
:10189800840C0F2404FA0CF426EA040E0C6904FAEA
:1018A8000CF444EA0E0440F825406FE0092400E0F7
:1018B800002404FA0EF42C430CF1020C6B4D45F88D
:1018C8002C404FF0B0442568D44325EA0206D1F8ED
:1018D80004C01CF4801F01D042EA05064FF0B04551
:1018E8002E606D6804EA0506D1F804C01CF4001FD8
:1018F80001D042EA05064FF0B0456E60D5F8845035
:1019080004EA0506D1F804C01CF4003F01D042EAFD
:1019180005064FF0B045C5F88460D5F880502C40D6
:101928004E6816F4803F01D042EA05044FF0B042F9
:10193800C2F8804001330A6832FA03F400F0938059
:101948004FF0010C0CFA03FC1CEA0202F2D04C68BE
:1019580004F00304013C012C7FF67EAF4C6804F0D0
:101968000304032C0CD0C4685D004FF0030C0CFA80
:1019780005FC24EA0C0C8C68AC4044EA0C04C460F6
:101988004C6804F00304022C3FF47BAF04684FEA70
:10199800430E4FF0030C0CFA0EFC24EA0C0C4C68B6
:1019A80004F0030404FA0EF444EA0C0404604C68DE
:1019B80014F4403FBED02E4CD4F8F45045F0020544
:1019C800C4F8F450D4F8F44004F002040194019CE3
:1019D8004FEA930C0CF10205244C54F8255003F0FF
:1019E80003044FEA840E0F2404FA0EF425EA0405D2
:1019F800204CA0423FF45CAF04F58064A04222D0A2
:101A080004F58064A04220D004F58064A0421ED072
:101A180004F58064A0421CD004F58064A0421AD06A
:101A280004F58064A04218D004F58064A04216D062
:101A380004F58064A04214D004F58064A0423FF409
:101A480035AF0A2435E7012433E7022431E70324BC
:101A58002FE704242DE705242BE7062429E707248C
:101A680027E7082425E702B070BD00BF000400582E
:101A780000440258000002580AB181617047090405
:101A880081617047436901EA030221EA030141EADF
:101A98000241816170470000F0B54D680468E36851
:101AA800C3F30B431D444FEAC21C04EBC214D4F821
:101AB800883003F47043C4F888300B680468E6681B
:101AC800C6F30B463344013304EBC21443EA05431F
:101AD800C4F88830CD680468E368C3F30A031D447A
:101AE80004EBC21EDEF88C3003F47043CEF88C3061
:101AF8008B680468E668C6F30A0E7344013304EB86
:101B0800C21443EA0543C4F88C30036803EBC213DC
:101B1800D3F8944024F00704C3F89440036803EB17
:101B2800C2130C69C3F8944091F8317091F832608F
:101B38008D69046804EBC21404F1840ED4F89C3057
:101B48000024CEF8184091F8303043EA072343EADE
:101B58000643066806EBC21E43EA0563CEF89C30CE
:101B68000EF1840E036803EBC213D3F8985025F0E6
:101B7800FF05C3F89850036803EBC2134D69C3F817
:101B88009850036803EBC213D3F8A0602E4D35407C
:101B9800C3F8A0500D6A036803EBC213CE6935433E
:101BA800C3F8A050036803EBC213D3F8AC50C3F8D2
:101BB800AC40036803EBC2124B6AC2F8AC300B6945
:101BC8006BB1012B39D0022B18BF042B37D0032B54
:101BD80037D0072B01D0012502E0022500E00425BB
:101BE80002686244D2F8B04004F0E024C2F8B04081
:101BF8008A6A05FB02F44B680A689B1A05FB03F323
:101C080007330268624443EA0443C2F8B030036809
:101C18006344D3F8B4400D4A2240C3F8B4200368A3
:101C28006344CA6AC3F8B42003689C44DCF884306F
:101C380043F00103CCF88430F0BD0325D0E702253A
:101C4800CEE70225CCE700BFF8F8FFFF00F8FFFF5A
:101C5800002875D010B5044690F8A130002B6AD042
:101C6800022384F8A1302268936923F070439361BA
:101C780021688A696368A0680343E06803432069B0
:101C8800034313438B6121688A682E4B1A408A608C
:101C980020688268A169D4F814C041EA0C410A435B
:101CA80082602168CA681A40CA602068C268216ACE
:101CB800D4F81CC041EA0C410A43C26021680A6991
:101CC8001A400A6120680269A16AD4F824C041EA6E
:101CD8000C410A43026121684A6913404B61E06A7A
:101CE80021684B69226B42EA004213434B6194F826
:101CF800350094F836301B042168CA6A02F07F4226
:101D0800CA622168CA6A43EA002394F8340003438C
:101D18001343CB622268536B43F006035363226874
:101D2800936943F0010393610020C4F8A4000123E0
:101D380084F8A13010BD80F8A030FEF7C7FF8FE708
:101D48000120704700F800F0F8B590F8A030012B9A
:101D58002AD004460D461646012780F8A0700223B3
:101D680080F8A1304FF0340C0CFB020C0CF1380C4D
:101D78008E46BEE80F00ACE80F00BEE80F00ACE8E6
:101D88000F00BEE80F00ACE80F00DEF80030CCF81A
:101D98000030324629462046FFF77EFE84F8A170BF
:101DA800002084F8A000F8BD0220FCE7134BDB6894
:101DB80013F0040F07D1114BDB6803F007038342CC
:101DC8001AD00120704710B50C4AD36823F00703D6
:101DD8001843D060FFF7B6FA0446084B5B6813F463
:101DE800005F07D1FFF7AEFA001BB0F57A7FF4D990
:101DF800012000E0002010BD002070470048025874
:101E0800002800F0398338B50446036813F0010F41
:101E180025D0944A136903F03803926A102B15D021
:101E2800182B0FD06368B3F5803F3FD0002B53D1F8
:101E38008C4B1A6822F480321A601A6822F48022C5
:101E48001A6038E002F00302022AEBD1854B1B68C6
:101E580013F4003F03D06368002B00F00F8323685E
:101E680013F0020F00F0A1807E4A1369926A13F002
:101E780038035AD0182B55D0E368002B00F0DE80C9
:101E880078490A6822F0190213430B60FFF75AFADF
:101E98000546744B1B6813F0040F40F0AD80FFF744
:101EA80051FA401B0228F4D90320EEE26D4A136868
:101EB80043F48033136063682BB3FFF743FA054696
:101EC800684B1B6813F4003FC9D1FFF73BFA401B6E
:101ED8006428F5D90320D8E2B3F5A02F09D0614BC7
:101EE8001A6822F480321A601A6822F480221A6072
:101EF800E1E75C4B1A6842F480221A601A6842F4DF
:101F080080321A60D7E7FFF71DFA0546554B1B6864
:101F180013F4003FA3D0FFF715FA401B6428F5D946
:101F28000320B2E212F0030FA6D14E4B1B6813F048
:101F3800040F03D0E368002B00F0A282494A13681B
:101F480023F01903E1680B431360FFF7FBF905461B
:101F5800444B1B6813F0040F06D1FFF7F3F9401B3D
:101F68000228F5D9032090E2FFF706FA41F20303AD
:101F7800984212D82269402A07D03A494B6823F47C
:101F88007C3343EA02334B600FE0364A536823F44C
:101F98007C3343F40033536007E0324A536823F03C
:101FA800FE43216943EA01635360236813F0100F6D
:101FB80000F088802B4A136903F03803926A082BD3
:101FC80056D0182B50D0E369002B00F0B880254A72
:101FD800136843F080031360FFF7B4F90546214BFB
:101FE8001B6813F4807F40F08880FFF7ABF9401B33
:101FF8000228F4D9032048E2FFF7BEF941F20303AF
:10200800984212D82269402A07D016494B6823F40F
:102018007C3343EA02334B60C7E7124A536823F420
:102028007C3343F400335360BFE70E4A536823F010
:10203800FE43216943EA01635360B6E7094A13681E
:1020480023F001031360FFF77DF90546054B1B6874
:1020580013F0040FA9D0FFF775F9401B0228F5D932
:10206800032012E20044025802F00302012AAAD116
:10207800A14B1B6813F4807F03D0E369802B40F0E9
:102088000182FFF779F941F20303984212D8226AD4
:10209800202A07D098494B6823F0F84343EA826323
:1020A8004B600FE0944A536823F0F84343F08043B1
:1020B800536007E0904AD36823F07C53216A43EACF
:1020C8000163D360236813F0080F60D06369002BA5
:1020D80049D0894A536F43F001035367FFF732F938
:1020E8000546854B5B6F13F0020F50D1FFF72AF9B5
:1020F800401B0228F5D90320C7E1FFF73DF941F25B
:102108000303984212D8226A202A07D07A494B68DA
:1021180023F0F84343EA82634B60D3E7764A536877
:1021280023F0F84343F080435360CBE7724AD36807
:1021380023F07C53216A43EA0163D360C2E76E4A05
:10214800136823F080031360FFF7FCF805466A4B19
:102158001B6813F4807FB5D0FFF7F4F8401B022802
:10216800F5D9032091E1644A536F23F001035367C3
:10217800FFF7E8F80546604B5B6F13F0020F06D0D7
:10218800FFF7E0F8401B0228F5D903207DE123681A
:1021980013F0200F29D0A3699BB1574A136843F461
:1021A80080531360FFF7CEF80546534B1B6813F4B2
:1021B800005F1AD1FFF7C6F8401B0228F5D90320A3
:1021C80063E14D4A136823F480531360FFF7BAF8AC
:1021D8000546494B1B6813F4005F06D0FFF7B2F8B9
:1021E800401B0228F5D903204FE1236813F0040FA0
:1021F80021D1636A002B00F047813F4A126902F03F
:102208003802182A00F0EE80022B79D03A4A136877
:1022180023F080731360FFF795F80446364B1B686C
:1022280013F0007F00F0DC80FFF78CF8001B022819
:10223800F4D9032029E1314A136843F48073136009
:10224800FFF780F805462D4B1B6813F4807F06D1F5
:10225800FFF778F8401B6428F5D9032015E1A36837
:10226800012B0AD00BBB244B1A6F22F001021A670C
:102278001A6F22F004021A6704E01F4A136F43F032
:1022880001031367A36833B3FFF75CF805461A4BDD
:102298001B6F13F0020FACD1FFF754F8401B41F24B
:1022A80088339842F3D90320EFE0052B09D0124B6D
:1022B8001A6F22F001021A671A6F22F004021A67D5
:1022C800E0E70D4B1A6F42F004021A671A6F42F0EA
:1022D80001021A67D6E7FFF735F80546064B1B6F6C
:1022E80013F0020F85D0FFF72DF8401B41F2883319
:1022F8009842F3D90320C8E0004402580048025825
:10230800694A136823F080731360FFF71BF80546CA
:10231800654B1B6813F0007F06D0FFF713F8401BCE
:102328000228F5D90320B0E05F4B996A5F4A0A405A
:10233800A16AE06A41EA00110A439A62226B013AF3
:10234800C2F30802616B0139490289B20A43A16BE1
:102358000139090401F4FE010A43E16B0139090658
:1023680001F0FE410A431A63DA6A22F00102DA62D6
:10237800596B4F4A0A40A16C42EAC1025A63DA6AB1
:1023880022F00C02216C0A43DA62DA6A22F00202B5
:10239800616C0A43DA62DA6A42F48032DA62DA6A33
:1023A80042F40032DA62DA6A42F48022DA62DA6AE5
:1023B80042F00102DA621A6842F080721A60FEF78F
:1023C800C1FF0446384B1B6813F0007F06D1FEF7A7
:1023D800B9FF001B0228F5D9032056E0002054E07D
:1023E800002052E0304A916A106B012B4ED001F068
:1023F8000303A26A93424BD1C1F30511E36A9942E0
:1024080048D1C0F30802236B013B9A4244D1C0F380
:102418004622636B013B9A4240D1C0F30642A36B4C
:10242800013B9A423CD1C0F30660E36B013B984202
:1024380038D11D4B5B6BC3F3CC03A26C9A4201D11C
:10244800002022E0184AD36A23F00103D362FEF782
:1024580079FF0546FEF776FFA842FBD0124A516B7A
:10246800134B0B40A16C43EAC1035363D36A43F097
:102478000103D362002008E001207047012004E036
:10248800012002E0012000E0002038BD0120FCE727
:102498000120FAE70120F8E70120F6E70120F4E738
:1024A8000120F2E70120F0E7004402580CFCFFFF8E
:1024B8000700FFFFF8B57E4B1B6903F03803102BAC
:1024C80000F0F280182B10D013B17A4C2046F8BDDA
:1024D800774B1B6813F0200F00F0E880744B1868E6
:1024E800C0F3C100744CC440F0E7714B9D6A05F01D
:1024F80003059C6AC4F30514D86A00F001005B6BFD
:10250800C3F3CC0303FB00F0FDF798FF0646002C4D
:10251800DCD0012D76D0022D00F0A4800DB320462A
:10252800FDF78CFF01466548FEF794F80446604BBA
:10253800186BC0F30800FDF781FF05464FF06451A2
:102548003046FDF7D3FF01462846FDF7C7FE4FF09A
:102558007E51FDF7C3FE01462046FDF7C7FF04463E
:1025680071E0534B1B6813F0200F29D0504F3B6884
:10257800C3F3C1035048D840FDF760FF0546204625
:10258800FDF75CFF01462846FEF764F80446386B01
:10259800C0F30800FDF752FF05464FF0645130467E
:1025A800FDF7A4FF01462846FDF798FE4FF07E513F
:1025B800FDF794FE01462046FDF798FF044642E0E9
:1025C8002046FDF73BFF01463D48FEF743F8044629
:1025D800374B186BC0F30800FDF730FF05464FF086
:1025E80064513046FDF782FF01462846FDF776FE26
:1025F8004FF07E51FDF772FE01462046FDF776FF4B
:10260800044620E02046FDF719FF01462B48FEF757
:1026180021F80446264B186BC0F30800FDF70EFF9F
:1026280005464FF064513046FDF760FF01462846E5
:10263800FDF754FE4FF07E51FDF750FE014620464F
:10264800FDF754FF04461A4B1B6BC3F34623581C73
:10265800FDF7F4FE01462046FDF7FCFFFEF796F86D
:10266800044633E72046FDF7E9FE01461548FDF725
:10267800F1FF04460E4B186BC0F30800FDF7DEFEB1
:1026880005464FF064513046FDF730FF01462846B5
:10269800FDF724FE4FF07E51FDF720FE014620464F
:1026A800FDF724FF0446CEE7074C0FE7024C0DE781
:1026B8000044025800093D000090D0030024744AE9
:1026C8000024744C20BCBE4B40787D01002800F0EB
:1026D800328170B50D4604469B4B1B6803F00F030F
:1026E8008B420BD2984A136823F00F030B431360F5
:1026F800136803F00F038B4240F01F81236813F027
:10270800040F0CD02269914B9B6903F070039A4225
:1027180005D98E498B6923F070031A438A612368AF
:1027280013F0080F0CD06269884BDB6903F0700363
:102738009A4205D98549CB6923F070031A43CA61C7
:10274800236813F0100F0CD0A269804BDB6903F4E7
:10275800E0639A4205D97D49CB6923F4E0631A43C3
:10276800CA61236813F0200F0CD0E269774B1B6A0B
:1027780003F070039A4205D974490B6A23F0700379
:102788001A430A62236813F0020F0CD0E2686F4BF9
:102798009B6903F00F039A4205D96C498B6923F0B2
:1027A8000F031A438A61236813F0010F41D0674A67
:1027B800936923F47063A1680B4393616368022BE8
:1027C8000AD0032B27D0012B2CD0604A126812F0B4
:1027D800040F06D10120ADE0126812F4003F00F0AA
:1027E800AE805A490A6922F0070213430B61FEF7CB
:1027F800A9FD0646554B1B6903F038036268B3EB25
:10280800C20F16D0FEF79EFD801B41F28833984216
:10281800F0D903208EE04D4A126812F0007FE0D113
:10282800012087E0494A126812F4807FD9D101203B
:1028380080E0236813F0020F0CD0E268434B9B69D9
:1028480003F00F039A4205D240498B6923F00F0326
:102858001A438A613C4B1B6803F00F03AB420AD949
:10286800394A136823F00F032B431360136803F0EE
:102878000F03AB4265D1236813F0040F0CD0226913
:10288800324B9B6903F070039A4205D22F498B693A
:1028980023F070031A438A61236813F0080F0CD0E1
:1028A80062692A4BDB6903F070039A4205D2274913
:1028B800CB6923F070031A43CA61236813F0100F21
:1028C8000CD0A269214BDB6903F4E0639A4205D27C
:1028D8001E49CB6923F4E0631A43CA61236813F0E5
:1028E800200F0CD0E269194B1B6A03F070039A425F
:1028F80005D216490B6A23F070031A430A62FFF7E0
:10290800D9FD12498B69C3F30323114AD35C03F041
:102918001F03D8408B6903F00F03D35C03F01F0338
:1029280020FA03F30B4A13600B4B18600B4B186823
:10293800FEF7A6FC70BD012070470120FAE70120D0
:10294800F8E70120F6E700BF0020005200440258D3
:102958007C48009004000024000000240C0000249F
:10296800404B9B6A03F00303032B79D070B50546EF
:102978000E463C4A136823F080631360FEF7E2FCBE
:102988000446384B1B6813F0006F06D0FEF7DAFCDC
:10299800031B022BF5D9032070BD324B9A6A22F42F
:1029A8007C32296842EA01329A626A68013AC2F3C3
:1029B8000802A9680139490289B20A43E96801395C
:1029C800090401F4FE010A4329690139090601F0E5
:1029D800FE410A439A63DA6A22F0C00269690A432F
:1029E800DA62DA6A22F02002A9690A43DA62DA6A4C
:1029F80022F01002DA62D96B1B4A0A40E96942EAFE
:102A0800C102DA63DA6A42F01002DA62C6B91A461B
:102A1800DB6A43F40023D362124A136843F08063ED
:102A28001360FEF78FFC04460E4B1B6813F0006F13
:102A380014D1FEF787FC001B0228F5D90320ABE769
:102A4800012E05D0074AD36A43F40013D362E3E7A3
:102A5800044AD36A43F48013D362DDE700209BE77E
:102A680001207047004402580700FFFF404B9B6A53
:102A780003F00303032B79D070B505460E463C4A94
:102A8800136823F080531360FEF75CFC0446384B50
:102A98001B6813F0005F06D0FEF754FC031B022BE3
:102AA800F5D9032070BD324B9A6A22F07C722968EE
:102AB80042EA01529A626A68013AC2F30802A968B6
:102AC8000139490289B20A43E9680139090401F464
:102AD800FE010A4329690139090601F0FE410A434A
:102AE8001A64DA6A22F4406269690A43DA62DA6AC5
:102AF80022F40072A9690A43DA62DA6A22F480725F
:102B0800DA62596C1B4A0A40E96942EAC1025A640E
:102B1800DA6A42F48072DA62C6B91A46DB6A43F4AA
:102B28008003D362124A136843F080531360FEF7A0
:102B380009FC04460E4B1B6813F0005F14D1FEF726
:102B480001FC001B0228F5D90320ABE7012E05D0B4
:102B5800074AD36A43F08073D362E3E7044AD36A2F
:102B680043F40003D362DDE700209BE701207047B0
:102B7800004402580700FFFFF8B50446036813F045
:102B8800006F30D0836EB3F5001F26D00ED8EBB19E
:102B9800B3F5801F07D102210830FFF7E1FE054693
:102BA80045B12E4621E0012635461EE0B3F5401F0B
:102BB80009D10025984A136D23F44013A16E0B43E5
:102BC8001365002611E0012635460EE0924AD36AC5
:102BD80043F40033D3620025ECE702212830FFF7E5
:102BE80045FF0546DCE700263546236813F4807F59
:102BF80014D0A36D042B32D8DFE803F003232A088E
:102C08000800854AD36A43F40033D36255BB824A2D
:102C1800136D23F00703A16D0B431365236813F4A9
:102C2800007F31D0E36D802B4CD020D8002B43D0CF
:102C3800402B19D1002104F10800FFF791FE054649
:102C48001AE0002104F10800FFF78AFE0546DDE7D7
:102C5800002104F12800FFF709FF0546D6E7012601
:102C68003546DBE72E46D9E7012635460CE0C02B72
:102C780002D0B3F5807F1CD15DBB674A136D23F486
:102C8800E073E16D0B431365236813F4806F46D03E
:102C9800D4F8A830B3F5800F39D01FD88BB3B3F56B
:102CA800001F18D1002104F10800FFF759FE05465E
:102CB8001AE001263546E7E7574AD36A43F400335A
:102CC800D362D9E7002104F12800FFF7CFFE0546BB
:102CD800D2E72E46D8E70126354620E0B3F5C00FE7
:102CE80002D0B3F5000F09D1C5B94B4A936D23F44F
:102CF8006003D4F8A8100B43936510E0012635460D
:102D08000DE0454AD36A43F40033D362ECE700216F
:102D180004F12800FFF7AAFE0546E5E72E462368DA
:102D280013F4006F24D0D4F8AC30B3F1007F42D054
:102D38000ED8002B39D0B3F1807F06D1002104F1E1
:102D48000800FFF70DFE054608E0012635460FE0AE
:102D5800B3F1407F02D0B3F1806F23D1002D31D180
:102D68002D4A936D23F0E063D4F8AC100B439365C0
:102D7800236813F0007F2ED0E36C202B40D026D898
:102D880033B1102B20D1244AD36A43F40033D362E1
:102D9800002D3CD1204AD36C23F03003E16C0B4367
:102DA800D36418E001263546E2E71B4AD36A43F4A8
:102DB8000033D362D2E7002104F12800FFF756FE62
:102DC8000546CBE72E46D3E70126354603E0302BF0
:102DD800DED001263546236813F4805F2DD0236E9C
:102DE800B3F5005F4FD019D8002B46D0B3F5805FFC
:102DF8000FD1002104F10800FFF7B2FD054613E0EA
:102E0800022104F10800FFF7ABFD0546C0E72E4696
:102E1800E1E70126354610E000440258B3F5405F6B
:102E280002D0B3F5804F25D1002D33D1774A136DE9
:102E380023F4E043216E0B431365236813F4005F0A
:102E480038D0636EB3F5003F53D028D843B1B3F5FB
:102E5800803F21D1012104F10800FFF781FD0546DB
:102E6800002D4DD1694A136D23F4E023616E0B43A5
:102E780013651FE001263546DFE7644AD36A43F449
:102E88000033D362D0E7002104F12800FFF7EEFDFC
:102E98000546C9E72E46D0E7012635460AE0B3F5D0
:102EA800802FDDD0B3F5A02FDAD0B3F5403FD7D0CF
:102EB80001263546236813F4804F31D0D4F8B0305A
:102EC800B3F1005F45D020D843B1B3F1805F19D189
:102ED800012104F10800FFF743FD0546002D3FD10D
:102EE8004A4A936D23F0E043D4F8B0100B4393653E
:102EF80016E0012104F12800FFF7B8FD0546AFE709
:102F08002E46D7E7012635460AE0B3F1804FE5D0D3
:102F1800B3F1A04FE2D0B3F1405FDFD001263546D0
:102F2800236813F4004F09D0236FB3F1805F19D0E1
:102F3800B3F1005F24D0D3B101263546236813F0DE
:102F4800807F33D0A36C032B5BD8DFE803F0272204
:102F58005327012104F12800FFF788FD0546BDE746
:102F68002E46DDE7294AD36A43F40033D36275B9A4
:102F7800264A136D23F04053216F0B431365DDE799
:102F8800012104F10800FFF7EBFC0546EFE72E46A8
:102F9800D4E71E4AD36A43F40033D362A5BB1B4A65
:102FA800D36C23F00303A16C0B43D364236813F49D
:102FB800800F2DD1236813F0010F00F0A580E36F77
:102FC800282B00F29F80DFE803F08D9D9D9D9D9D3D
:102FD8009D9D879D9D9D9D9D9D9D969D9D9D9D9D36
:102FE8009D9D8D9D9D9D9D9D9D9D8D9D9D9D9D9D29
:102FF8009D9D8D00022104F10800FFF7B1FC0546F4
:10300800CCE701263546D1E72E46CFE700440258E3
:10301800914A136843F480731360FEF793F90746E7
:103028008D4B1B6813F4807F05D1FEF78BF9C01B0D
:103038006428F5D90325002D4AD1884B1B6FD4F895
:10304800B420534013F4407F0CD0844B1A6F22F401
:103058004072196F41F480311967196F21F480317A
:1030680019671A67D4F8B430B3F5807F15D08DBBD3
:10307800D4F8B43003F44072B2F5407F1ED0774ADA
:10308800136923F47C53136174490B6FD4F8B4208B
:10309800C2F30B0213430B678CE7FEF753F907469D
:1030A8006E4B1B6F13F0020FE1D1FEF74BF9C01BFB
:1030B80041F288339842F3D90325D8E76748026973
:1030C80022F47C52664901EA131313430361DBE7D8
:1030D8002E466FE72E466DE7012104F10800FFF741
:1030E8003FFC0546E5B95D4A536D23F03803E16FAF
:1030F8000B43536508E0012104F12800FFF7B6FCF3
:103108000546EFE701263546236813F0020F17D06E
:10311800A36F052B28D8DFE803F00B05200B0B0B5A
:103128002E46F1E7012104F10800FFF719FC0546D6
:10313800EDB94A4A536D23F00703A16F0B4353655A
:10314800236813F0040F23D0D4F89430052B45D806
:10315800DFE803F0150F3D151515012104F12800CE
:10316800FFF784FC0546E3E701263546E8E72E46E7
:10317800E6E7012104F10800FFF7F2FB054685BBED
:10318800364A936D23F00703D4F894100B439365E4
:10319800236813F0200F34D0D4F89030B3F1005FD7
:1031A8004ED023D843B1B3F1805F1CD1002104F184
:1031B8000800FFF7D5FB0546002D48D1274A536D77
:1031C80023F0E043D4F890100B43536519E0012134
:1031D80004F12800FFF74AFC0546D0E701263546EA
:1031E800D6E72E46D4E7012635460AE0B3F1804FEC
:1031F800E2D0B3F1A04FDFD0B3F1405FDCD00126BD
:103208003546236813F0400F37D0D4F89C30B3F517
:10321800006F53D026D843B1B3F5806F19D1002180
:1032280004F10800FFF79CFB0546002D4DD10B4A21
:10323800936D23F4E053D4F89C100B4393651CE082
:10324800022104F12800FFF711FC0546B4E72E46D9
:10325800D7E70126354610E00048025800440258D6
:10326800CFFFFF00B3F5805FDFD0B3F5A05FDCD000
:10327800B3F5406FD9D001263546236813F0800F87
:1032880033D0D4F8A030B3F5804F00F0A38021D814
:1032980043B1B3F5005F1AD1002104F10800FFF72C
:1032A8005FFB0546002D40F09C80814A936D23F416
:1032B8006043D4F8A0100B43936516E0022104F193
:1032C8002800FFF7D3FB0546AFE72E46D5E70126D2
:1032D80035460AE0B3F5004FE4D0B3F5204FE1D00E
:1032E800B3F5C04FDED001263546236813F0080F2A
:1032F8000CD0D4F88430B3F5805F74D06C4A536D29
:1033080023F44053D4F884100B435365236813F017
:10331800100F0CD0D4F89830B3F5807F6CD0644A85
:10332800936D23F44073D4F898100B439365236886
:1033380013F4002F0BD0D4F8A430B3F5803F74D029
:10334800B3F5003F67D0002B5FD0012635462368D0
:1033580013F4802F0CD0D4F88830B3F5001F7CD03C
:10336800B3F5401F6FD0B3F5801F67D001263546EF
:10337800236813F4803F08D0236D002B76D0B3F573
:10338800803F00F0818001263546236813F0005FF6
:1033980040F08380236813F4003F00F08E80D4F857
:1033A8008030B3F5807F00F0EC8040F28380B3F585
:1033B800007F03D0B3F5407F40F0E180002D40F05E
:1033C800E6803B4A536D23F44073D4F880100B43D6
:1033D800536572E0022104F12800FFF747FB054618
:1033E80060E72E4681E7022104F12800FFF73EFB43
:1033F800002883D0012681E7022104F12800FFF785
:1034080035FB00288BD0012689E7002104F108004C
:10341800FFF7A6FA05467DB9254A936D23F4403394
:10342800D4F8A4100B43936591E7022104F1280016
:10343800FFF71CFB0546EEE72E4688E71C4AD36AD1
:1034480043F40033D3627DB9194A536D23F4401312
:10345800D4F888100B4353658AE7012104F128004A
:10346800FFF704FB0546EEE72E4681E7104AD36ACC
:1034780043F40033D36275B90D4AD36C23F4803317
:10348800216D0B43D36480E7022104F10800FFF7A4
:1034980067FA0546EFE72E4677E7022104F1280090
:1034A800FFF7E4FA00283FF475AF012672E700BF82
:1034B80000440258002B81D00126236813F4801F92
:1034C80006D04F4A136D23F00043616F0B43136519
:1034D800236813F0805F07D0494A136923F48043B7
:1034E800D4F8B8100B431361236813F4001F06D0F7
:1034F800434A136D23F08073E16E0B431365236811
:1035080013F0804F09D03E4B1A6922F400421A6129
:103518001A69D4F8BC100A431A612368002B06DA2A
:10352800374AD36C23F04053616D0B43D36423684F
:1035380013F4000F07D0324A536D23F44003D4F834
:103548008C100B435365636813F0010F21D1636836
:1035580013F0020F26D1636813F0040F2BD16368B0
:1035680013F0080F30D1636813F0100F35D163687A
:1035780013F0200F3AD106B101263046F8BD0126D6
:103588009BE71F4AD36A43F40033D36216E72E46FB
:1035980093E7002104F10800FFF7E2F90028D6D0EC
:1035A8000646D4E7012104F10800FFF7D9F90028FD
:1035B800D1D00646CFE7022104F10800FFF7D0F981
:1035C8000028CCD00646CAE7002104F12800FFF7FE
:1035D8004DFA0028C7D00646C5E7012104F12800A6
:1035E800FFF744FA0028C2D00646C0E7022104F1DA
:1035F8002800FFF73BFA0028BDD00646BBE700BF0E
:103608000044025808B338B50D46044690F82C30EB
:10361800B3B1022384F82C30214651F8040B00F092
:1036280049FC62682946206800F07EFC084A136855
:1036380043F000431360012384F82C30002038BD88
:1036480080F82D30FDF70CFAE3E70120704700BF42
:103658000040005238B5044690F82C30D8B2022801
:1036680005D00D46052818BF012801D0012038BD16
:10367800022384F82C30206800F0B0FC2B68022B61
:1036880004D0012384F82C300020F0E7052384F8C7
:103698002C300020EBE710B5044690F82C30D8B257
:1036A800022805D094F82C30DBB2012B01D0012080
:1036B80010BD022384F82C30206800F0A5FC0123FB
:1036C80084F82C300020F3E710B40268536991693C
:1036D80041F00801916101688A6942F010028A612B
:1036E80001680A6822F001020A6001680C69284A28
:1036F80022400A6101688A6822F440428A6090F890
:103708008120D2B2042A0DD013F0200F0AD0D0F8AD
:10371800842042F08002C0F8842001688A6942F05F
:1037280020028A6190F88120D2B2032A0DD013F0CA
:10373800400F0AD0D0F8842042F00402C0F8842058
:1037480001688A6942F040028A6113F4007F0AD056
:10375800D0F8842042F00102C0F8842001688A6908
:1037680042F400728A6113F4807F0AD0D0F8843062
:1037780043F00803C0F884300268936943F4807307
:1037880093610023A0F86230A0F86A3010BC70473B
:1037980090FCFFFFC36B5B09C0680830C00803FBDF
:1037A800000070472DE9F04107460E4615461C46B5
:1037B800DDF8188000E0B4B13B685B6936EA0303C2
:1037C8000CBF01230023AB420AD1FDF7BBFDA0EBE0
:1037D8000800A042EFD3B4F1FF3FECD0032000E093
:1037E8000020BDE8F0810320FBE70000002800F07E
:1037F800B78070B504460023836205685C4B5D4E54
:103808009D4218BFB54214BF0126002607D0A3F574
:1038180074439D4203D0C3680F2B00F2A380204657
:10382800FFF7B8FF2EB1544B9D4202D0082800F292
:103838009B804F4A4F4B9D4218BF954203D003F5DA
:1038480080639D4202D1102800F2908094F8813064
:10385800F3B1022384F881302268136823F001034E
:10386800136021688A6802F4F812A369B3F1806FC3
:1038780014D0636813F4800F23D0E368062B20D993
:1038880021680B6823F48073206D03430B601DE0EF
:1038980084F880302046FDF7C5FBDAE76368B3F5A6
:1038A800800F06D0002BE4D1A36BB3F1805FE0D189
:1038B80002E0A06B0028F5D10B6843F480530B603D
:1038C800D7E721680B6823F480730B60E369A16A6A
:1038D8000B431343E26B1343E16822680B43936085
:1038E800636B626A1343A26B1343A2691343226991
:1038F800134362691343226A134362681343E26CF9
:103908001343A2681343A26C1343A16D22680B43AF
:10391800D36063686BB92268936823F4C05343F497
:10392800006393602268936823F4C06343F4806360
:1039380093602268136D23F001031365636813F421
:10394800800F06D02268D36823F00043616D0B43D3
:10395800D3600020C4F88400012384F8813070BD4E
:10396800012070470120FAE70120F8E70120F6E777
:103978000030014000380040003C00402DE9F0478D
:1039880082B01D46D0F8008090F88030012B00F0FE
:103998005A8104468A469146012380F88030FDF713
:1039A800D1FC074694F88160F6B2012E39D1B9F1FD
:1039B800000F18BFBAF1000F3BD0032384F8813001
:1039C8000023C4F88430C4F85CA0A4F86090A4F87C
:1039D80062906366A4F86830A4F86A306367236766
:1039E800A368B3F5C02F28D02268D36823F4C02376
:1039F80043F40033D36023685968944A0A4049EA7B
:103A080002025A602268136843F001031360636876
:103A1800B3F5800F17D0E3680F2B23D8072B59D89D
:103A2800B8E0002384F880300226304602B0BDE8B2
:103A3800F087002384F88030F7E72268136843F49E
:103A480000631360D7E72268136843F400731360B8
:103A5800E1E7FDF777FCC01BA84202D3B5F1FF3FB1
:103A680019D1C5B1B4F862309BB2002B00F0CD80FB
:103A780023685A6912F0020FEBD0E26D12681A62DD
:103A8800E36D0433E365B4F8622092B2013A92B26E
:103A9800A4F86220E6E72046FFF716FE002384F824
:103AA8008030D4F8843043F48073C4F88430012320
:103AB80084F881300326B8E7E36D1B88A8F8203026
:103AC800E36D0233E365B4F862309BB2013B9BB20D
:103AD800A4F86230B4F862309BB2002B00F09580F5
:103AE8002268536913F0020F15D0B4F862309BB204
:103AF800012BE1D9E36B002BDED0E36D1B68136269
:103B0800E36D0433E365B4F862309BB2023B9BB2C9
:103B1800A4F86230DEE7FDF715FCC01BA84202D30B
:103B2800B5F1FF3F01D1002DD4D12046FFF7CCFDE0
:103B3800002384F88030D4F8843043F48073C4F8C8
:103B48008430012384F8813003266EE7B4F86230AC
:103B58009BB2012B10D9E36B73B1E36D1B88A8F8F6
:103B68002030E36D0233E365B4F862309BB2023B68
:103B78009BB2A4F862300DE0E36D1B7882F8203028
:103B8800E36D0133E365B4F862309BB2013B9BB24D
:103B9800A4F86230B4F862309BB2002B35D02268AA
:103BA800536913F0020F15D0B4F862309BB2032B9F
:103BB800CCD9E36B402BC9D9E36D1B681362E36D65
:103BC8000433E365B4F862309BB2043B9BB2A4F8BB
:103BD8006230DFE7FDF7B6FBC01BA84202D3B5F1A0
:103BE800FF3F01D1002DD5D12046FFF76DFD002301
:103BF80084F88030D4F8843043F48073C4F8843077
:103C0800012384F8813003260FE700972B46002212
:103C180008212046FFF7C6FD28B1D4F8843043F0C8
:103C28002003C4F884302046FFF74EFD002384F8B3
:103C38008030012384F88130D4F88430002B7FF45D
:103C4800F4AE0026F1E60226EFE600BF0000FFFF13
:103C5800704770477047704708B5806B0023A0F81D
:103C68006A30A0F86230012380F88130FFF7F3FF53
:103C780008BD70472DE9F843044606683269736940
:103C880002EA0305D6F8089090F88170FFB213F4A1
:103C9800006F02D012F0080F3FD105F06403042B27
:103CA80042D0002305F04508B8F1010F44D005F0D3
:103CB8002602022A45D0002B46D115F0080F79D0EC
:103CC8002268936943F0080393612268936943F07B
:103CD800100393612268936943F400639361226837
:103CE800136923F00803136123689B6813F4404F9A
:103CF8003BD02046FFF7E8FC012384F88130D4F854
:103D08008430002B4AD1052F4CD0042F4ED0032FDE
:103D18001AD12046FFF79CFF16E0B36943F400630D
:103D2800B361FFF7A6FF0FE0636F20469847236F44
:103D3800204698470123B5E7236F20469847434616
:103D4800B5E7636F20469847BDE8F883072B1CD971
:103D5800636E328E1A80636E02336366B4F86A301B
:103D68009BB2013B9BB2A4F86A30B4F86A309BB2AC
:103D7800002BBED0E3680F2BE8D92268636E126B64
:103D88001A60636E04336366E8E72268636E92F82C
:103D980030201A70636E01336366DFE72046FFF751
:103DA8005AFFD1E72046FFF755FFCDE72046FFF73A
:103DB80050FFC9E715F4587FC6D015F0400F0AD058
:103DC800D4F8843043F00403C4F88430226893693B
:103DD80043F04003936115F4007F0AD0D4F884308F
:103DE80043F00103C4F884302268936943F40073F4
:103DF800936115F4807F0AD0D4F8843043F0080327
:103E0800C4F884302268936943F48073936115F091
:103E1800200F0AD0D4F8843043F08003C4F88430EB
:103E28002268936943F020039361D4F88430002B0F
:103E38008AD02268136823F001031360226811698D
:103E48001A4B0B40136109F44049B9F5404F25D18D
:103E58002268936823F440439360E36F5BB1144A8C
:103E68001A65E06FFDF7F8FA28B1D4F8843043F00A
:103E78004003C4F88430A36F002B3FF465AF0C4AAD
:103E88001A65A06FFDF7E8FA00283FF45DAFD4F893
:103E9800843043F04003C4F8843055E7012384F8A4
:103EA80081302046FFF7D7FE4EE700BF94FCFFFFA6
:103EB800613C009010B40B68C3B90368194A1A40F2
:103EC8004B688C682343CC6823430C6923434C69B3
:103ED80023438C692343CC6923430C6A2343496AEF
:103EE8000B4313430360002010BC7047036823F49E
:103EF800F843CA690C6A22434C6A2243134303609D
:103F08004368084A1A404B688C682343CC682343AB
:103F18000C6923434C69234389690B43134343606A
:103F2800E1E700BF0080FFFF52BB826802F07042E9
:103F38000B68013BD1F804C00CF1FF3C43EA0C13B9
:103F4800D1F808C00CF1FF3C43EA0C23D1F80CC0AF
:103F58000CF1FF3C43EA0C33D1F810C00CF1FF3CE4
:103F680043EA0C43D1F814C00CF1FF3C43EA0C536C
:103F78008969013943EA016313438360002070476C
:103F88008368154A1A40CB6803F1FF3C4B69013B33
:103F98001B0543EA0C3313438360C26802F0704286
:103FA8000B68013BD1F804C00CF1FF3C43EA0C1349
:103FB800D1F808C00CF1FF3C43EA0C23D1F810C03B
:103FC8000CF1FF3C43EA0C438969013943EA016378
:103FD8001343C360D2E700BFFF0F0FFF10B403699C
:103FE800084A1A400B684C6823438C6804F1FF3C6C
:103FF80043EA4C13C96843EA412313430361002091
:1040080010BC70470000C0FF4269034B134043EAED
:10401800410343610020704701C0FFFF00B583B032
:10402800ADF80600C0F30800ADF806004FF0FF3306
:1040380001220DF106010348FFF7A0FC03B05DF86B
:1040480004FB00BFB005002438B50446084D002223
:104058004FF400512846FDF70FFD2046FFF7DEFF1D
:1040680001224FF400512846FDF706FD38BD00BF78
:10407800001C025838B540F48074084D00224FF4F3
:1040880000512846FDF7F8FC2046FFF7C7FF01223C
:104098004FF400512846FDF7EFFC38BD001C0258CC
:1040A80010B5FD4C01224FF480712046FDF7E4FC69
:1040B8000120FDF74DF900224FF480712046FDF7ED
:1040C800DBFC0120FDF744F901224FF48071204602
:1040D800FDF7D2FC0120FDF73BF9FF20FFF7B4FF05
:1040E8007720FFF7C7FF0120FFF7C4FF0020FFF785
:1040F800C1FF0020FFF7BEFF1320FFF7BBFFEF2033
:10410800FFF7A2FF0820FFF7B5FFFF20FFF79CFF8E
:104118007720FFF7AFFF0120FFF7ACFF0020FFF784
:10412800A9FF0020FFF7A6FF1020FFF7A3FFC0207C
:10413800FFF78AFF4F20FFF79DFF0020FFF79AFF48
:10414800C120FFF781FF1020FFF794FF0C20FFF735
:1041580091FFC220FFF778FF0120FFF78BFF1420A3
:10416800FFF788FFCC20FFF76FFF1020FFF782FFD3
:10417800B020FFF769FF0020FFF77CFF0B20FFF757
:1041880079FF1320FFF776FF0D20FFF773FF10204C
:10419800FFF770FF0720FFF76DFF0220FFF76AFFA8
:1041A8000820FFF767FF0720FFF764FF1F20FFF7CE
:1041B80061FF0420FFF75EFF1120FFF75BFF0F2070
:1041C800FFF758FF2820FFF755FF2F20FFF752FF72
:1041D8001F20FFF74FFFB120FFF736FF0020FFF742
:1041E80049FF0C20FFF746FF1320FFF743FF0C2081
:1041F800FFF740FF1020FFF73DFF0520FFF73AFFCC
:104208000220FFF737FF0820FFF734FF0820FFF7E9
:1042180031FF1E20FFF72EFF0520FFF72BFF13208D
:10422800FFF728FF1120FFF725FF2720FFF722FFC0
:104238003020FFF71FFF1F20FFF71CFFFF20FFF7AD
:1042480003FF7720FFF716FF0120FFF713FF002079
:10425800FFF710FF0020FFF70DFF1120FFF70AFFFF
:10426800B020FFF7F1FE4D20FFF704FFB120FFF764
:10427800EBFE3D20FFF7FEFEB220FFF7E5FE8720AC
:10428800FFF7F8FEB320FFF7DFFE8020FFF7F2FE0E
:10429800B520FFF7D9FE4520FFF7ECFEB720FFF762
:1042A800D3FE8520FFF7E6FEB820FFF7CDFE2020DD
:1042B800FFF7E0FEC020FFF7C7FE0920FFF7DAFE90
:1042C800C120FFF7C1FE7820FFF7D4FEC220FFF718
:1042D800BBFE7820FFF7CEFED020FFF7B5FE882082
:1042E800FFF7C8FE6420FDF733F8E020FFF7ACFEC7
:1042F8000020FFF7BFFE0020FFF7BCFE0220FFF7FB
:10430800B9FEE120FFF7A0FE0420FFF7B3FEB020BE
:10431800FFF7B0FE0620FFF7ADFEB020FFF7AAFEBC
:104328000520FFF7A7FEB020FFF7A4FE0720FFF740
:10433800A1FEB020FFF79EFE0020FFF79BFE442061
:10434800FFF798FE4420FFF795FEE220FFF77CFE7A
:104358002020FFF78FFE2020FFF78CFE4420FFF778
:1043680089FE4420FFF786FE9620FFF783FEA020F3
:10437800FFF780FE0020FFF77DFE0020FFF77AFEA2
:104388009620FFF777FEA020FFF774FE0020FFF7C6
:1043980071FE0020FFF76EFEE320FFF755FE0020B8
:1043A800FFF768FE0020FFF765FE2220FFF762FE98
:1043B8002220FFF75FFEE420FFF746FE4420FFF7C8
:1043C80059FE4420FFF756FEE520FFF73DFE0C207E
:1043D800FFF750FE9020FFF74DFEB020FFF74AFE92
:1043E800A020FFF747FE0E20FFF744FE9220FFF7BC
:1043F80041FEB020FFF73EFEA020FFF73BFE08205D
:10440800FFF738FE8C20FFF735FEB020FFF732FEAD
:10441800A020FFF72FFE0A20FFF72CFE8E20FFF7C3
:1044280029FEB020FFF726FEA020FFF723FEE62096
:10443800FFF70AFE0020FFF71DFE0020FFF71AFE17
:104448002220FFF717FE2220FFF714FEE720FFF7D0
:10445800FBFD4420FFF70EFE4420FFF70BFEE8208B
:10446800FFF7F2FD0D20FFF705FE9120FFF702FE92
:10447800B020FFF7FFFDA020FFF7FCFD0F20FFF79E
:10448800F9FD9320FFF7F6FDB020FFF7F3FDA0201C
:10449800FFF7F0FD092001E0001C0258FFF7EAFDD4
:1044A8008D20FFF7E7FDB020FFF7E4FDA020FFF720
:1044B800E1FD0B20FFF7DEFD8F20FFF7DBFDB020CD
:1044C800FFF7D8FDA020FFF7D5FDE920FFF7BCFDD9
:1044D8003620FFF7CFFD0020FFF7CCFDEB20FFF7DC
:1044E800B3FD0020FFF7C6FD0020FFF7C3FDE42061
:1044F800FFF7C0FDE420FFF7BDFD4420FFF7BAFD3C
:104508008820FFF7B7FD4020FFF7B4FDED20FFF747
:104518009BFDC120FFF7AEFDA220FFF7ABFDBF203A
:10452800FFF7A8FD0F20FFF7A5FD6720FFF7A2FD05
:104538004520FFF79FFDFF20FFF79CFDFF20FFF7B9
:1045480099FDFF20FFF796FDFF20FFF793FD54200C
:10455800FFF790FD7620FFF78DFDF020FFF78AFD2D
:10456800FB20FFF787FD2A20FFF784FD1C20FFF7BB
:1045780081FDEF20FFF768FD1020FFF77BFD0D2080
:10458800FFF778FD0420FFF775FD0820FFF772FD9F
:104598003F20FFF76FFD1F20FFF76CFDFF20FFF79F
:1045A80053FD7720FFF766FD0120FFF763FD00202C
:1045B800FFF760FD0020FFF75DFD1320FFF75AFDB0
:1045C800E820FFF741FD0020FFF754FD0E20FFF71C
:1045D80051FDFF20FFF738FD7720FFF74BFD012045
:1045E800FFF748FD0020FFF745FD0020FFF742FDDB
:1045F8000020FFF73FFD1120FFF726FD7820FCF78C
:10460800A7FEFF20FFF720FD7720FFF733FD0120ED
:10461800FFF730FD0020FFF72DFD0020FFF72AFDF2
:104628001320FFF727FDE820FFF70EFD0020FFF716
:1046380021FD0C20FFF71EFD0A20FCF789FEE8206B
:10464800FFF702FD0020FFF715FD0020FFF712FD20
:10465800FF20FFF7F9FC7720FFF70CFD0120FFF79B
:1046680009FD0020FFF706FD0020FFF703FD0020ED
:10467800FFF700FD3A20FFF7E7FC5020FFF7FAFCB0
:104688002920FFF7E1FC3220FCF762FE10BD00BFD5
:1046980070B50D4E0D4D761BB61006D0002455F89A
:1046A800043B01349847A642F9D1094E094D761BBF
:1046B80000F0D4F8B61006D0002455F8043B0134B5
:1046C8009847A642F9D170BD904800909048009054
:1046D8009848009090480090830730B548D0541E01
:1046E800002A3FD0CAB2034601E0013C3AD303F89E
:1046F800012B9D07F9D1032C2DD9CDB245EA05250B
:104708000F2C45EA054536D9A4F1100222F00F0C0A
:1047180003F1200EE6444FEA121C03F1100242E9AD
:10472800045542E9025510327245F8D10CF10102E4
:1047380014F00C0F03EB021204F00F0C13D0ACF1C1
:10474800040323F003030433134442F8045B934245
:10475800FBD10CF003042CB1CAB21C4403F8012BA2
:104768009C42FBD130BD64461346002CF4D1F9E7D6
:1047780003461446BFE71A46A446E0E7024B13B1C6
:10478800024800F005B8704700000000A5470090F7
:10479800002301461A46184600F01AB838B5084BE7
:1047A800084D5B1B9C1007D0043B1D44013C55F889
:1047B80004399847002CF9D1BDE8384000F054B8C6
:1047C8009C48009098480090704700BF704700BF11
:1047D8002DE9F047DFF87CA00646DAF80000984695
:1047E8000F469146FFF7F0FF1B4B1B68D3F8484173
:1047F80024B365681F2D26DC5EB96B1C0235DAF818
:104808000000636044F82570FFF7E0FF0020BDE872
:10481800F08704EB85010123C1F88890D4F888213A
:10482800AB401A43022EC4F88821C1F80881E4D1AC
:10483800D4F88C211343C4F88C31DEE703F5A67451
:10484800C3F84841D5E7DAF80000FFF7BFFF4FF09B
:10485800FF30DCE7380400248C480090F8B500BF2E
:10486800F8BC08BC9E467047F8B500BFF8BC08BC49
:044878009E467047A1
:10487C0000000000010203040102030406070809FA
:04488C0010000024F4
:0848900085470090BD02009075
:0448980099020090F1
:10489C000090D0030090D003010000001000000035
:1048AC0000000000FC02002464030024CC0300245C
:1048BC0000000000000000000000000000000000EC
:1048CC0000000000000000000000000000000000DC
:1048DC0000000000000000000000000000000000CC
:1048EC0000000000000000000000000000000000BC
:1048FC0000000000000000000000000000000000AC
:10490C00000000000000000000000000000000009B
:10491C00000000000000000000000000000000008B
:10492C00000000000000000000000000000000007B
:10493C00000000000000000000000000000000006B
:10494C00000000000000000001000000000000005A
:10495C000E33CDAB34126DE6ECDE05000B0000001F
:10496C00000000000000000000000000000000003B
:10497C00000000000000000000000000000000002B
:10498C00000000000000000000000000000000001B
:10499C00000000000000000000000000000000000B
:0C4CCC0000000000000000003C06002476
:040000059000123520
:00000001FF
